:100000000C9462000C948A000C948A000C948A0070
:100010000C948A000C948A000C948A000C948A0038
:100020000C948A000C948A000C948A000C948A0028
:100030000C948A000C948A000C948A000C948A0018
:100040000C9449060C948A000C94B9060C949306FF
:100050000C948A000C948A000C948A000C948A00F8
:100060000C948A000C948A000000000024002700F1
:100070002A0000000000250028002B0000000008D6
:10008000000201000003040700000000000000005F
:1000900000000000230026002900040404040404D6
:1000A0000404020202020202030303030303010227
:1000B00004081020408001020408102001020408F6
:1000C0001020EB0611241FBECFEFD8E0DEBFCDBF5E
:1000D00011E0A0E0B1E0ECE8F7E102C005900D927C
:1000E000A836B107D9F722E0A8E6B1E001C01D9219
:1000F000A933B207E1F710E0C2E6D0E004C02197CF
:10010000FE010E94BE0BC136D107C9F70E945607F7
:100110000C94C40B0C940000CF92DF92EF92FF92EC
:10012000CF93DF93B0911502A0E08111AB2F8091A6
:10013000160290E0880F991FAC0140575F4FC090A6
:100140001B02D0901C02E0901D02F0901E0230E0D5
:1001500020E0FA01C591D491E881B90190E080E0F6
:10016000EB23EA130AC02F5F3F4F6C157D058E0508
:100170009F0578F36FEF7FEFCB01DF91CF91FF9079
:10018000EF90DF90CF90089590E0FC01E458FF4F8E
:100190002491FC01E255FF4F3491FC01E656FF4FDC
:1001A000E491EE23C9F0222339F0233001F1A8F4C1
:1001B000213019F1223029F1F0E0EE0FFF1FEE5847
:1001C000FF4FA591B4918FB7F894EC91611126C0BF
:1001D00030953E233C938FBF08952730A9F02830F7
:1001E000C9F0243049F7809180008F7D03C0809151
:1001F00080008F7780938000DFCF84B58F7784BDB8
:10020000DBCF84B58F7DFBCF8091B0008F7780935B
:10021000B000D2CF8091B0008F7DF9CF3E2BDACFE6
:10022000CF93DF9390E0FC01E255FF4F2491865677
:100230009F4FFC0184918823D1F090E0880F991F93
:10024000FC01E859FF4FA591B491FC01EE58FF4F16
:10025000C591D491623071F49FB7F8943C91822F8C
:10026000809583238C93E8812E2B28839FBFDF9179
:10027000CF9108958FB7F894EC912E2B2C938FBFCC
:10028000F6CF3FB7F8948091690190916A01A091EF
:100290006B01B0916C0126B5A89B05C02F3F19F0EA
:1002A0000196A11DB11D3FBFBA2FA92F982F8827F6
:1002B000BC01CD01620F711D811D911D42E0660FD1
:1002C000771F881F991F4A95D1F708958F929F92A3
:1002D000AF92BF92CF92DF92EF92FF924B015C01FF
:1002E0000E9441016B017C010E9441016C197D0952
:1002F0008E099F09683E734081059105A8F321E0AE
:10030000821A9108A108B10888EEC80E83E0D81EB1
:10031000E11CF11C81149104A104B10429F7FF90A0
:10032000EF90DF90CF90BF90AF909F908F90089507
:10033000CF92DF92EF92FF920F931F93CF93DF93B1
:10034000CDB7DEB7C054D1400FB6F894DEBF0FBEB4
:10035000CDBF2FB7F89480916D0190916E01A0915F
:100360006F01B09170012FBF409117025091180298
:100370006091190270911A028C019D01041B150BEA
:10038000260B370BB901A801403D574061057105A7
:1003900090F480911F02C05CDE4F0FB6F894DEBF70
:1003A0000FBECDBFDF91CF911F910F91FF90EF90C6
:1003B000DF90CF9008958093170290931802A09336
:1003C0001902B0931A0210921202109211021092A6
:1003D000100210920F0210920E0262E0809113023E
:1003E0000E94100161E070E080E090E00E946601F0
:1003F00061E0809113020E94100160E0809113027D
:100400000E94C400809114028551823020F58BE255
:1004100091E10197F1F762E0809113020E941001CF
:100420008091200290E08230910538F0880F991F6A
:10043000880F991F05970197F1F7F89480E00E94C3
:100440008C006F3F7F4F8F4F9F4F61F410921F02C0
:10045000789480E0A0CF64E170E080E090E00E94BA
:100460006601D9CF81E00E948C006F3F7F4F8F4F94
:100470009F4F61F38E010F5F1F4F6E018FEBC81A04
:100480008EEFD80A780180E00E948C00F70160832B
:1004900071838283938381E00E948C00F7016483DF
:1004A000758386839783F8E0EF0EF11CEC14FD044E
:1004B00051F7789430E020E0F801C080D180E280EC
:1004C000F3804481558166817781FFEFCF16DF0687
:1004D000EF06FF0631F04F3F8FEF580768077807A8
:1004E00019F410921F02B5CFF90183E0F595E79555
:1004F0008A95E1F7E25FFD4F8081880FC416D5062B
:10050000E606F70610F180832F5F3F4F085F1F4F0D
:100510002832310589F64091120220910E02809115
:100520000F02280F3327331F80911002280F311D2F
:1005300080911102820F932F911D99274817190658
:1005400081F681E080931F0226CF8160DCCFAF92DD
:10055000BF92CF92DF92EF92FF920F931F93CF93B0
:10056000DF936C017B018B01040F151FEB015E0112
:10057000AE18BF08C017D10759F06991D601ED91A7
:10058000FC910190F081E02DC6010995892B79F746
:10059000C501DF91CF911F910F91FF90EF90DF90F8
:1005A000CF90BF90AF900895FC01538D448D252FBF
:1005B00030E0842F90E0821B930B541710F0CF96FD
:1005C000089501970895FC01918D828D981761F02F
:1005D000A28DAE0FBF2FB11D5D968C91928D9F5F46
:1005E0009F73928F90E008958FEF9FEF0895FC0125
:1005F000918D828D981731F0828DE80FF11D858DD8
:1006000090E008958FEF9FEF0895FC01918D228D6A
:10061000892F90E0805C9F4F821B91098F739927EF
:10062000089581E791E00E94050321E0892B09F4F8
:1006300020E0822F089580E090E0892B29F00E942D
:10064000110381110C9400000895FC01A48DA80FE2
:10065000B92FB11DA35ABF4F2C91848D90E0019604
:100660008F739927848FA689B7892C93A089B18924
:100670008C91837080648C93938D848D981306C0C5
:100680000288F389E02D80818F7D80830895EF9229
:10069000FF920F931F93CF93DF93EC0181E0888F3C
:1006A0009B8D8C8D98131AC0E889F989808185FF0C
:1006B00015C09FB7F894EE89FF896083E889F989AE
:1006C00080818370806480839FBF81E090E0DF91B0
:1006D000CF911F910F91FF90EF900895F62E0B8D03
:1006E00010E00F5F1F4F0F731127E02E8C8D8E11BE
:1006F0000CC00FB607FCFACFE889F989808185FF25
:10070000F5CFCE010E942503F1CFEB8DEC0FFD2F2D
:10071000F11DE35AFF4FF0829FB7F8940B8FEA89DF
:10072000FB8980818062CFCFCF93DF93EC01888DEE
:100730008823B9F0AA89BB89E889F9898C9185FD5C
:1007400003C0808186FD0DC00FB607FCF7CF8C91EA
:1007500085FFF2CF808185FFEDCFCE010E9425037A
:10076000E9CFDF91CF910895089590E080E008955A
:10077000FB0101900020E9F73197AF01461B570BB1
:10078000DC01ED91FC910280F381E02D09948F92C0
:100790009F92AF92BF92EF92FF920F931F93CF93CE
:1007A000DF93CDB7DEB7A1970FB6F894DEBF0FBECB
:1007B000CDBF7C01FA01CB0119A2223008F42AE056
:1007C0008E010F5D1F4F822E912CB12CA12CBF01E9
:1007D000A50194010E949C0BF901CA016A300CF535
:1007E000605DD8016E938D01232B242B252B79F787
:1007F00090E080E0109721F0BD01C7010E94B8038E
:10080000A1960FB6F894DEBF0FBECDBFDF91CF919A
:100810001F910F91FF90EF90BF90AF909F908F909E
:100820000895695CDECF2F923F924F925F926F9254
:100830007F928F929F92AF92BF92CF92DF92EF9270
:10084000FF921F93CF93DF93EC016A017B01722E1D
:10085000AB019601CB01B6010E94970B6EE171E0EE
:10086000811126C046015701E894B7F82FEF3FEFFA
:100870004FE75FE7C501B4010E94970B81110CC0DF
:100880002FEF3FEF4FE75FE7C501B4010E94CD09AD
:1008900062E271E0181664F02FEF3FEF4FE75FE47C
:1008A000C701B6010E94250B1816B4F466E271E088
:1008B000CE01DF91CF911F91FF90EF90DF90CF900D
:1008C000BF90AF909F908F907F906F905F904F9070
:1008D0003F902F900C94B8032FEF3FEF4FE75FEC62
:1008E000C701B6010E94CD0987FDE0CF20E030E0CE
:1008F000A901C701B6010E94CD09312C212C87FF27
:100900000DC0E881F9810190F081E02D6DE2CE010A
:1009100009951C01F7FAF094F7F8F09410E060E004
:1009200070E080E09FE3711641F020E030E040E2AB
:1009300051E40E94D2091F5FF6CFA70196010E94E1
:1009400061092B013C010E94440A4B015C012AE031
:10095000BC01A401CE010E94C7037C01E20CF31C80
:100960001123E1F1C501B4010E94730A9B01AC019E
:10097000C301B2010E9460094B015C01E881F98169
:100980000190F081E02D6EE2CE010995E80EF91E8E
:10099000115020F120E030E040E251E4C501B40103
:1009A0000E942A0B2B013C010E94440A4B01B12CEE
:1009B000A12C2AE0B501A401CE010E94C703E80ED4
:1009C000F91EC501B4010E94730A9B01AC01C30169
:1009D000B2010E9460094B015C01DACFC701DF91CF
:1009E000CF911F91FF90EF90DF90CF90BF90AF908D
:1009F0009F908F907F906F905F904F903F902F903F
:100A00000895CF93DF93EC0160E08E810E94C400D3
:100A100061E08E810E94C40060E08E810E94C4006B
:100A20008BE891E00197F1F7DF91CF910895CF9294
:100A3000DF92EF92FF920F931F93CF93DF936C019E
:100A40007C0187E0E80EF11CD0E0C0E0062F10E04A
:100A5000B8010C2E02C0759567950A94E2F7617093
:100A6000F70181917F010E94C4002196C430D10515
:100A700079F7C601DF91CF911F910F91FF90EF9011
:100A8000DF90CF900C940105CF92DF92EF92FF920E
:100A90000F931F93CF93DF93EC01F62E642F8C817D
:100AA0000E94C4008D818F3F19F060E00E94C40055
:100AB0000F2D10E08F8584FF25C06E0187E0C80EE2
:100AC000D11CF12CE12CB8010E2C02C07595679554
:100AD0000A94E2F76170F60181916F010E94C400EF
:100AE000FFEFEF1AFF0A88E0E816F10461F7CE0184
:100AF000DF91CF911F910F91FF90EF90DF90CF90FA
:100B00000C940105B80184E0759567958A95E1F725
:100B1000CE010E9417056F2DCE01DF91CF911F915D
:100B20000F91FF90EF90DF90CF900C94170540E06D
:100B3000682F81E292E00C944405CF93DF938230DA
:100B400029F490913002986090933002809334029F
:100B50001092350280E48093360280E18093370260
:100B600080E58093380261E0809125020E941001A7
:100B7000809126028F3F19F061E00E94100161E030
:100B8000809127020E941001C1E2D2E09E01215211
:100B900032408091300284FD0BC084E090E02196C9
:100BA0002817390744F461E08E810E941001EECFCE
:100BB00088E090E0F4CF8BE39DE00197F1F760E0EF
:100BC000809125020E94C40060E0809127020E946B
:100BD000C400809126028F3F19F060E00E94C4009B
:100BE0008091300284FD39C063E081E292E00E948E
:100BF0001705CBE4D6E4CE010197F1F763E081E27B
:100C000092E00E9417052197F1F763E081E292E0FC
:100C10000E94170583E592E00197F1F762E081E217
:100C200092E00E9417058091300280620E94970531
:100C300084E0809331028CE00E94970581E00E945D
:100C400097058BE39FE10197F1F782E080933202F1
:100C500086E0DF91CF910C94970580620E94970502
:100C60008BE496E40197F1F78091300280620E9454
:100C7000970583E592E00197F1F780913002806259
:100C80000E949705D0CF41E00E94440581E090E0AA
:100C900008951F920F920FB60F9211242F933F9336
:100CA0008F939F93AF93BF9380916D0190916E014D
:100CB000A0916F01B09170013091680123E0230F82
:100CC0002D3758F50196A11DB11D20936801809321
:100CD0006D0190936E01A0936F01B09370018091AC
:100CE000690190916A01A0916B01B0916C0101962C
:100CF000A11DB11D8093690190936A01A0936B01BE
:100D0000B0936C01BF91AF919F918F913F912F91C3
:100D10000F900FBE0F901F90189526E8230F029694
:100D2000A11DB11DD2CF1F920F920FB60F921124A9
:100D30002F933F934F935F936F937F938F939F93E3
:100D4000AF93BF93EF93FF9381E791E00E94250358
:100D5000FF91EF91BF91AF919F918F917F916F9193
:100D60005F914F913F912F910F900FBE0F901F9069
:100D700018951F920F920FB60F9211242F938F93F5
:100D80009F93EF93FF93E0918101F0918201808125
:100D9000E0918701F091880182FD1BC090818091D4
:100DA0008A018F5F8F7320918B01821741F0E09150
:100DB0008A01F0E0EF58FE4F958F80938A01FF91F2
:100DC000EF919F918F912F910F900FBE0F901F90D9
:100DD00018958081F4CFE1E7F1E01382128288EE6A
:100DE00093E0A0E0B0E084839583A683B78384E09A
:100DF00091E09183808385EC90E09587848784ECF3
:100E000090E09787868780EC90E0918B808B81ECD7
:100E100090E0938B828B82EC90E0958B848B86ECB8
:100E200090E0978B868B118E128E138E148EE1E2DA
:100E3000F2E01382128286E191E09183808387E061
:100E400084838FEF858386E0868385E0878384E0D3
:100E5000808783E0818782E08287138614861586E7
:100E60001686178681E00E949D05AEE0B2E088E01C
:100E700015968C9315978BE016968C931697E6EB48
:100E8000F0E0E4911796EC931797E2EAF0E0E49132
:100E90001896EC93189740E85EE360E070E01D96CA
:100EA0004D935D936D937C9350970895789484B59A
:100EB000826084BD84B5816084BD85B5826085BD56
:100EC00085B5816085BD80916E00816080936E00E4
:100ED00010928100809181008260809381008091D6
:100EE0008100816080938100809180008160809387
:100EF00080008091B10084608093B1008091B00047
:100F000081608093B00080917A00846080937A0041
:100F100080917A00826080937A0080917A0081606B
:100F200080937A0080917A00806880937A00109292
:100F3000C100E0918101F091820182E08083E09123
:100F40007D01F0917E011082E0917F01F09180019E
:100F50008FEC808310928901E0918501F0918601E8
:100F600086E08083E0918301F0918401808180613B
:100F70008083E0918301F091840180818860808387
:100F8000E0918301F0918401808180688083E09109
:100F90008301F091840180818F7D80836AE271E01A
:100FA00081E791E00E94B80366E371E081E791E098
:100FB0000E94B80382E00E949D0562E080911302C6
:100FC0000E9410012FB7F89480916D0190916E01ED
:100FD000A0916F01B09170012FBF805D9740A10972
:100FE000B1098093170290931802A0931902B0934D
:100FF0001A0287E38093200261E08DE00E941001D5
:10100000C0E0D0E00E949801882349F0809114024A
:101010008B3028F08D3050F085518230C0F1812C1A
:10102000912C20ECA22E2FE7B22E1EC060910F0251
:1010300070E090E080E00E94750A2DEC3CEC4CECF6
:101040005DE30E942A0B6B017C0160910E0270E04F
:1010500090E080E00E94750A9B01AC01C701B601D7
:101060000E9461094B015C010E949801882341F0B4
:10107000809114028C3009F4A2C0D8F48B3091F125
:10108000C12CD12C80ECE82E8FE7F82E55C0609152
:101090000E0270910F0276276727762790E080E096
:1010A0000E94730A2DEC3CEC4CEC5DE30E942A0B91
:1010B000D9CF8551823020F710911002612F70E056
:1010C000762F662766277F7780911102682B90E044
:1010D00080E00E94730A2DEC3CEC4CEC5DE30E9436
:1010E0002A0B89C06091100270E090E080E00E94BD
:1010F000730A6B017C011091110217FF0AC0AC0149
:101100009B0160E070E080E89FEB0E9460096B014A
:101110007C011F70612F70E090E080E00E94750AF2
:101120002DEC3CEC4CEC5DE30E942A0BA7019601F0
:101130000E9461096B017C0181E791E00E94050337
:10114000892B79F081E791E00E94E302813349F431
:1011500061E381E791E00E94470361E08DE00E9436
:10116000C400A7019601C701B6010E94970B811127
:1011700009C0A5019401C501B4010E94970B882301
:1011800009F442C069E371E081E791E00E94B8038D
:1011900066E371E081E791E00E94B80364E670E0E5
:1011A00080E090E00E946601209709F42BCF0E9416
:1011B0001103882309F426CF0E94000023CF109149
:1011C0001002612F70E090E080E00E94730A6B01D2
:1011D0007C01609111026F7070E090E080E00E94ED
:1011E000750A2DEC3CEC4CEC5DE30E942A0BA70148
:1011F00096010E9461096B017C0117FF9DCFF7FAF0
:10120000F094F7F8F09498CFE1E0809134028111E6
:10121000E0E0E195F0E0EF5DFD4F848980680E9499
:10122000970561E571E081E292E00E94B80322E057
:10123000B701A60181E292E00E94130467E571E024
:1012400081E292E00E94B803E0913402E230B0F50E
:10125000E150F0E0EF5DFD4F848980680E949705C2
:101260006BE571E081E292E00E94B80322E0B501F3
:10127000A40181E292E00E94130465E671E081E23C
:1012800092E00E94B80368EC70E080E090E00E9479
:10129000660122E0B701A60181E791E00E941304F4
:1012A00066E371E081E791E00E94B80322E0B501B6
:1012B000A40181E791E00E9413046ACFE1E0C9CF65
:1012C0005058BB27AA270E9478090C94EB0A0E9469
:1012D000DD0A38F00E94E40A20F039F49F3F19F447
:1012E00026F40C94DA0A0EF4E095E7FB0C94D40A89
:1012F000E92F0E94FC0A58F3BA17620773078407A4
:10130000950720F079F4A6F50C941E0B0EF4E095E9
:101310000B2EBA2FA02D0B01B90190010C01CA01AF
:10132000A0011124FF27591B99F0593F50F4503E5A
:1013300068F11A16F040A22F232F342F4427585F4C
:10134000F3CF469537952795A795F0405395C9F764
:101350007EF41F16BA0B620B730B840BBAF091501C
:10136000A1F0FF0FBB1F661F771F881FC2F70EC0BB
:10137000BA0F621F731F841F48F48795779567958E
:10138000B795F7959E3F08F0B0CF9395880F08F07A
:101390009927EE0F9795879508950E94B00A08F453
:1013A00081E008950E94E6090C94EB0A0E94E40A89
:1013B00058F00E94DD0A40F029F45F3F29F00C94B8
:1013C000D40A51110C941F0B0C94DA0A0E94FC0AE7
:1013D00068F39923B1F3552391F3951B550BBB2764
:1013E000AA2762177307840738F09F5F5F4F220FA9
:1013F000331F441FAA1FA9F335D00E2E3AF0E0E8A0
:1014000032D091505040E695001CCAF72BD0FE2FE9
:1014100029D0660F771F881FBB1F2617370748077D
:10142000AB07B0E809F0BB0B802DBF01FF27935835
:101430005F4F3AF09E3F510578F00C94D40A0C941B
:101440001F0B5F3FE4F3983ED4F38695779567953D
:10145000B795F7959F5FC9F7880F911D969587956A
:1014600097F90895E1E0660F771F881FBB1F621789
:1014700073078407BA0720F0621B730B840BBA0B47
:10148000EE1F88F7E09508950E94040B88F09F579F
:1014900098F0B92F9927B751B0F0E1F0660F771F98
:1014A000881F991F1AF0BA95C9F714C0B13091F08E
:1014B0000E941E0BB1E008950C941E0B672F782F2D
:1014C0008827B85F39F0B93FCCF386957795679553
:1014D000B395D9F73EF490958095709561957F4FBF
:1014E0008F4F9F4F0895E89409C097FB3EF4909565
:1014F0008095709561957F4F8F4F9F4F9923A9F0ED
:10150000F92F96E9BB279395F6958795779567957B
:10151000B795F111F8CFFAF4BB0F11F460FF1BC0BF
:101520006F5F7F4F8F4F9F4F16C0882311F096E952
:1015300011C0772321F09EE8872F762F05C0662300
:1015400071F096E8862F70E060E02AF09A95660FB9
:10155000771F881FDAF7880F9695879597F9089572
:10156000990F0008550FAA0BE0E8FEEF16161706B4
:10157000E807F907C0F012161306E407F50798F01C
:10158000621B730B840B950B39F40A2661F0232B35
:10159000242B252B21F408950A2609F4A140A695B1
:1015A0008FEF811D811D089597F99F6780E870E096
:1015B00060E008959FEF80EC089500240A941616C9
:1015C000170618060906089500240A941216130631
:1015D000140605060895092E0394000C11F48823BF
:1015E00052F0BB0F40F4BF2B11F460FF04C06F5FDB
:1015F0007F4F8F4F9F4F089557FD9058440F551FB1
:1016000059F05F3F71F04795880F97FB991F61F084
:101610009F3F79F087950895121613061406551FFB
:10162000F2CF4695F1DF08C0161617061806991F67
:10163000F1CF86957105610508940895E894BB275C
:1016400066277727CB0197F908950E94B00A08F41E
:101650008FEF08950E943D0B0C94EB0A0E94DD0A67
:1016600038F00E94E40A20F0952311F00C94D40A7B
:101670000C94DA0A11240C941F0B0E94FC0A70F3DC
:10168000959FC1F3950F50E0551F629FF001729F27
:10169000BB27F00DB11D639FAA27F00DB11DAA1F36
:1016A000649F6627B00DA11D661F829F2227B00D83
:1016B000A11D621F739FB00DA11D621F839FA00D0E
:1016C000611D221F749F3327A00D611D231F849F5E
:1016D000600D211D822F762F6A2F11249F575040B5
:1016E0009AF0F1F088234AF0EE0FFF1FBB1F661F30
:1016F000771F881F91505040A9F79E3F510580F0F9
:101700000C94D40A0C941F0B5F3FE4F3983ED4F37F
:10171000869577956795B795F795E7959F5FC1F79C
:10172000FE2B880F911D9695879597F908950E9435
:10173000B00A880B990B0895A1E21A2EAA1BBB1BB5
:10174000FD010DC0AA1FBB1FEE1FFF1FA217B3078D
:10175000E407F50720F0A21BB30BE40BF50B661FA3
:10176000771F881F991F1A9469F760957095809567
:1017700090959B01AC01BD01CF010895EE0FFF1FB5
:0C1780000590F491E02D0994F894FFCF3F
:10178C00000000004703A702D40294030503E30200
:10179C00F702000000004306A702B503B4036E6114
:1017AC006E00696E66006F76660044485478782047
:1017BC007465737421000D0A004661696C656420C0
:1017CC00746F20726561642066726F6D204448549A
:1017DC000054656D703D00202A430048756D6964A6
:0817EC006974793D002520001D
:00000001FF
